{
  "contractName": "Voting",
  "abi": [
    {
      "constant": true,
      "inputs": [
        {
          "name": "",
          "type": "bytes32"
        }
      ],
      "name": "votesReceived",
      "outputs": [
        {
          "name": "",
          "type": "uint256"
        }
      ],
      "payable": false,
      "stateMutability": "view",
      "type": "function"
    },
    {
      "constant": true,
      "inputs": [],
      "name": "totalTokens",
      "outputs": [
        {
          "name": "",
          "type": "uint256"
        }
      ],
      "payable": false,
      "stateMutability": "view",
      "type": "function"
    },
    {
      "constant": true,
      "inputs": [],
      "name": "tokenPrice",
      "outputs": [
        {
          "name": "",
          "type": "uint256"
        }
      ],
      "payable": false,
      "stateMutability": "view",
      "type": "function"
    },
    {
      "constant": true,
      "inputs": [
        {
          "name": "",
          "type": "uint256"
        }
      ],
      "name": "candidateList",
      "outputs": [
        {
          "name": "",
          "type": "bytes32"
        }
      ],
      "payable": false,
      "stateMutability": "view",
      "type": "function"
    },
    {
      "constant": true,
      "inputs": [
        {
          "name": "",
          "type": "address"
        }
      ],
      "name": "voterInfo",
      "outputs": [
        {
          "name": "voterAddress",
          "type": "address"
        },
        {
          "name": "tokensBought",
          "type": "uint256"
        }
      ],
      "payable": false,
      "stateMutability": "view",
      "type": "function"
    },
    {
      "constant": true,
      "inputs": [],
      "name": "balanceTokens",
      "outputs": [
        {
          "name": "",
          "type": "uint256"
        }
      ],
      "payable": false,
      "stateMutability": "view",
      "type": "function"
    },
    {
      "inputs": [
        {
          "name": "_totalTokens",
          "type": "uint256"
        },
        {
          "name": "_tokenPrice",
          "type": "uint256"
        },
        {
          "name": "_candidateNames",
          "type": "bytes32[]"
        }
      ],
      "payable": false,
      "stateMutability": "nonpayable",
      "type": "constructor"
    },
    {
      "constant": false,
      "inputs": [],
      "name": "buy",
      "outputs": [],
      "payable": true,
      "stateMutability": "payable",
      "type": "function"
    },
    {
      "constant": false,
      "inputs": [
        {
          "name": "candidate",
          "type": "bytes32"
        },
        {
          "name": "tokens",
          "type": "uint256"
        }
      ],
      "name": "voteForCandidate",
      "outputs": [],
      "payable": false,
      "stateMutability": "nonpayable",
      "type": "function"
    },
    {
      "constant": true,
      "inputs": [
        {
          "name": "candidate",
          "type": "bytes32"
        }
      ],
      "name": "indexOfCandidate",
      "outputs": [
        {
          "name": "",
          "type": "uint256"
        }
      ],
      "payable": false,
      "stateMutability": "view",
      "type": "function"
    },
    {
      "constant": true,
      "inputs": [
        {
          "name": "user",
          "type": "address"
        }
      ],
      "name": "voterDetails",
      "outputs": [
        {
          "name": "",
          "type": "uint256"
        },
        {
          "name": "",
          "type": "uint256[]"
        }
      ],
      "payable": false,
      "stateMutability": "view",
      "type": "function"
    },
    {
      "constant": true,
      "inputs": [],
      "name": "tokensSold",
      "outputs": [
        {
          "name": "",
          "type": "uint256"
        }
      ],
      "payable": false,
      "stateMutability": "view",
      "type": "function"
    },
    {
      "constant": true,
      "inputs": [],
      "name": "allCandidates",
      "outputs": [
        {
          "name": "",
          "type": "bytes32[]"
        }
      ],
      "payable": false,
      "stateMutability": "view",
      "type": "function"
    },
    {
      "constant": true,
      "inputs": [
        {
          "name": "candidate",
          "type": "bytes32"
        }
      ],
      "name": "totalVotesFor",
      "outputs": [
        {
          "name": "",
          "type": "uint256"
        }
      ],
      "payable": false,
      "stateMutability": "view",
      "type": "function"
    }
  ],
  "bytecode": "0x608060405234801561001057600080fd5b50604051610bd7380380610bd7833981018060405281019080805190602001909291908051906020019092919080518201929190505050826001819055508260028190555081600381905550806000908051906020019061007292919061007b565b505050506100f3565b8280548282559060005260206000209081019282156100bd579160200282015b828111156100bc57825182906000191690559160200191906001019061009b565b5b5090506100ca91906100ce565b5090565b6100f091905b808211156100ec5760008160009055506001016100d4565b5090565b90565b610ad5806101026000396000f3006080604052600436106100c5576000357c0100000000000000000000000000000000000000000000000000000000900463ffffffff1680632f265cf7146100ca578063518ab2a81461010f5780635938750d1461013a5780636b2dc6b5146101d95780637021939f146102145780637e1c0c09146102595780637ff9b5961461028457806381c40715146102af578063a6f2ae3a1461031b578063b13c744b14610325578063cdf58d351461036e578063e4494a0f146103f8578063ecd098b014610423575b600080fd5b3480156100d657600080fd5b506100f96004803603810190808035600019169060200190929190505050610468565b6040518082815260200191505060405180910390f35b34801561011b57600080fd5b5061012461048d565b6040518082815260200191505060405180910390f35b34801561014657600080fd5b5061017b600480360381019080803573ffffffffffffffffffffffffffffffffffffffff16906020019092919050505061049b565b6040518083815260200180602001828103825283818151815260200191508051906020019060200280838360005b838110156101c45780820151818401526020810190506101a9565b50505050905001935050505060405180910390f35b3480156101e557600080fd5b5061021260048036038101908080356000191690602001909291908035906020019092919050505061057f565b005b34801561022057600080fd5b5061024360048036038101908080356000191690602001909291905050506107ef565b6040518082815260200191505060405180910390f35b34801561026557600080fd5b5061026e610807565b6040518082815260200191505060405180910390f35b34801561029057600080fd5b5061029961080d565b6040518082815260200191505060405180910390f35b3480156102bb57600080fd5b506102c4610813565b6040518080602001828103825283818151815260200191508051906020019060200280838360005b838110156103075780820151818401526020810190506102ec565b505050509050019250505060405180910390f35b61032361086f565b005b34801561033157600080fd5b5061035060048036038101908080359060200190929190505050610976565b60405180826000191660001916815260200191505060405180910390f35b34801561037a57600080fd5b506103af600480360381019080803573ffffffffffffffffffffffffffffffffffffffff169060200190929190505050610999565b604051808373ffffffffffffffffffffffffffffffffffffffff1673ffffffffffffffffffffffffffffffffffffffff1681526020018281526020019250505060405180910390f35b34801561040457600080fd5b5061040d6109dd565b6040518082815260200191505060405180910390f35b34801561042f57600080fd5b5061045260048036038101908080356000191690602001909291905050506109e3565b6040518082815260200191505060405180910390f35b6000600560008360001916600019168152602001908152602001600020549050919050565b600060025460015403905090565b60006060600460008473ffffffffffffffffffffffffffffffffffffffff1673ffffffffffffffffffffffffffffffffffffffff16815260200190815260200160002060010154600460008573ffffffffffffffffffffffffffffffffffffffff1673ffffffffffffffffffffffffffffffffffffffff1681526020019081526020016000206002018080548060200260200160405190810160405280929190818152602001828054801561056f57602002820191906000526020600020905b81548152602001906001019080831161055b575b5050505050905091509150915091565b600080600061061d600460003373ffffffffffffffffffffffffffffffffffffffff1673ffffffffffffffffffffffffffffffffffffffff16815260200190815260200160002060020180548060200260200160405190810160405280929190818152602001828054801561061357602002820191906000526020600020905b8154815260200190600101908083116105ff575b5050505050610a60565b600460003373ffffffffffffffffffffffffffffffffffffffff1673ffffffffffffffffffffffffffffffffffffffff1681526020019081526020016000206001015403925082841115151561067257600080fd5b83600560008760001916600019168152602001908152602001600020600082825401925050819055506000600460003373ffffffffffffffffffffffffffffffffffffffff1673ffffffffffffffffffffffffffffffffffffffff16815260200190815260200160002060020180549050141561077657600091505b60008054905082101561077557600460003373ffffffffffffffffffffffffffffffffffffffff1673ffffffffffffffffffffffffffffffffffffffff1681526020019081526020016000206002016000908060018154018082558091505090600182039060005260206000200160009091929091909150555081806001019250506106ee565b5b61077f856109e3565b905083600460003373ffffffffffffffffffffffffffffffffffffffff1673ffffffffffffffffffffffffffffffffffffffff168152602001908152602001600020600201828154811015156107d157fe5b90600052602060002001600082825401925050819055505050505050565b60056020528060005260406000206000915090505481565b60015481565b60035481565b6060600080548060200260200160405190810160405280929190818152602001828054801561086557602002820191906000526020600020905b8154600019168152602001906001019080831161084d575b5050505050905090565b60006003543481151561087e57fe5b049050600254811115151561089257600080fd5b33600460003373ffffffffffffffffffffffffffffffffffffffff1673ffffffffffffffffffffffffffffffffffffffff16815260200190815260200160002060000160006101000a81548173ffffffffffffffffffffffffffffffffffffffff021916908373ffffffffffffffffffffffffffffffffffffffff16021790555080600460003373ffffffffffffffffffffffffffffffffffffffff1673ffffffffffffffffffffffffffffffffffffffff168152602001908152602001600020600101600082825401925050819055508060026000828254039250508190555050565b60008181548110151561098557fe5b906000526020600020016000915090505481565b60046020528060005260406000206000915090508060000160009054906101000a900473ffffffffffffffffffffffffffffffffffffffff16908060010154905082565b60025481565b600080600090505b600080549050811015610a36578260001916600082815481101515610a0c57fe5b9060005260206000200154600019161415610a2957809150610a5a565b80806001019150506109eb565b7fffffffffffffffffffffffffffffffffffffffffffffffffffffffffffffffff91505b50919050565b6000806000809150600090505b8351811015610a9f578381815181101515610a8457fe5b90602001906020020151820191508080600101915050610a6d565b81925050509190505600a165627a7a72305820bfa98146ca52e9b72ac6fe099159800002d16b6256a04a20af096b2bffed96380029",
  "source": "pragma solidity ^0.4.23;\n\ncontract Voting {\n\n  bytes32[] public candidateList;\n\n  uint public totalTokens;\n  uint public balanceTokens;\n  uint public tokenPrice;\n\n  struct voter {\n    address voterAddress;\n    uint tokensBought;\n    uint[] tokensUsedPerCandidate;\n  }\n\n  mapping(address => voter) public voterInfo;\n  mapping(bytes32 => uint) public votesReceived;\n\n  constructor(uint _totalTokens, uint _tokenPrice, bytes32[] _candidateNames) {\n    totalTokens = _totalTokens;\n    balanceTokens = _totalTokens;\n    tokenPrice = _tokenPrice;\n    candidateList = _candidateNames;\n  }\n\n  // 1. Users should be able to purchase tokens\n  function buy() payable public {\n    uint tokensToBuy = msg.value / tokenPrice;\n    require(tokensToBuy <= balanceTokens);\n\n    voterInfo[msg.sender].voterAddress = msg.sender;\n    voterInfo[msg.sender].tokensBought += tokensToBuy;\n\n    balanceTokens -= tokensToBuy;\n  }\n\n  // 2. Users should be able to vote for candidates with tokens\n  function voteForCandidate(bytes32 candidate, uint tokens) public {\n    uint availableTokens = voterInfo[msg.sender].tokensBought - totalTokensUsed(voterInfo[msg.sender].tokensUsedPerCandidate);\n\n    require(tokens <= availableTokens);\n\n    votesReceived[candidate] += tokens;\n\n    if(voterInfo[msg.sender].tokensUsedPerCandidate.length == 0) {\n      for(uint i = 0; i < candidateList.length; i++) {\n        voterInfo[msg.sender].tokensUsedPerCandidate.push(0);\n      }\n    }\n\n    uint index = indexOfCandidate(candidate);\n    voterInfo[msg.sender].tokensUsedPerCandidate[index] += tokens;\n  }\n\n  function totalTokensUsed(uint[] _tokensUsedPerCandidate) private pure returns (uint) {\n    uint totalUsedTokens = 0;\n\n    for (uint i = 0; i < _tokensUsedPerCandidate.length; i++) {\n      totalUsedTokens += _tokensUsedPerCandidate[i];\n    }\n\n    return totalUsedTokens;\n  }\n\n  function indexOfCandidate(bytes32 candidate) view public returns(uint) {\n    for (uint i = 0; i < candidateList.length; i++) {\n      if (candidateList[i] == candidate) {\n        return i;\n      }\n    }\n\n    return uint(-1);\n  }\n\n  // 3. Anyone should be able to lookup voter info\n  function voterDetails(address user) view public returns (uint, uint[]) {\n    return (voterInfo[user].tokensBought, voterInfo[user].tokensUsedPerCandidate);\n  }\n\n  function tokensSold() public view returns (uint) {\n    return totalTokens - balanceTokens;\n  }\n\n  function allCandidates() public view returns (bytes32[]) {\n    return candidateList;\n  }\n\n  function totalVotesFor(bytes32 candidate) public view returns (uint) {\n    return votesReceived[candidate];\n  }\n\n}\n",
  "sourcePath": "/home/pkotgire/Documents/ethereum_voting_dapp/chapter3/contracts/Voting.sol",
  "compiler": {
    "name": "solc",
    "version": "0.4.24+commit.e67f0147.Emscripten.clang"
  },
  "schemaVersion": "2.0.0",
  "updatedAt": "2018-06-20T18:14:50.690Z"
}